:100000000C946C090C9496090C9496090C9496091E
:100010000C9496090C9496090C9496090C949609E4
:100020000C9496090C9496090C9496090C949609D4
:100030000C9496090C94D6C10C9496090C949609CC
:100040000C9496090C9496090C947DC30C94960913
:100050000C942FC70C9465C70C9496090C949609C0
:100060000C9496090C9496090C94EEAE0C94960997
:100070000C94C6C70C94FCC70C9496090C94960972
:100080000C9404C20C9496090C949609000000008C
:10009000000700004000001F003FF800003F01FF84
:1000A000FC00007C03FFFE0000F007FFFF0001E002
:1000B0000FFF070003C00F9F038003C01E1F01C076
:1000C00007801C1F81C007801C1F80E00700381FAD
:1000D00080E00700380F80200F00380F80000F00ED
:1000E000380FC0000E00300FC0000E00200FC000FF
:1000F0000E00000FC0000E00000FC0000E00000F29
:10010000E0000E00000FF8000E00000FFC000F00D2
:10011000001FFE000E00003FFE000E00007FFF00EB
:100120000E00007FFF061E00007FFFFE5E00007FC6
:10013000FFFFFC0000FFFFFFFC001FFFFFFFF800B8
:100140001FFFFFFFF0001FFFFFFFF000FFFFFFFF9B
:10015000F000FFFFFFFFF800FFFFFF3FF000FFFF91
:10016000C0FE7000FFF007FC0000FC007FF0000004
:10017000F803FFC00000F803FE000000F003F000E9
:1001800000001FF000000007F83FF000000007FC2F
:100190007FF000000007FEEFF000000007FFCFFF38
:1001A000FFFFFFFFFBCDFFFFFFFFFFDBCD80000068
:1001B0000000DBCD8000000000DBCD8FFFFFFFF0F3
:1001C000DBCD8000000000DBCD8000000000DBCD37
:1001D00080007E0000DBCD8000810000DBCD80014F
:1001E0003C8000DBCD8002424000DBCD8FF28147B6
:1001F000F8DBCD8002894000DBCD8002BD4000DB12
:10020000CD8002E74000DBCD800366C000DBCD80FF
:1002100001248000DBCD8000E70000DBCD8000679B
:1002200001F8DBCD8FE0254000DBCD8001A4A800E4
:10023000DBCD8003609400DBCD8002600400DBCD69
:10024000FFFF2007FFDBCDFFFF2007FFDBEFF00004
:10025000800407FF6FF000800407FE783000800400
:10026000061E1FF000400407F80FF000400407F0DE
:10027000000000200400000000001FFC000000033C
:10028000C003C000000FE007F000001E700E7800F1
:10029000001C381C3800000C1C383000000C0FF01B
:1002A0003000000C07E03000000C06603000000E4B
:1002B00000007000000E000070003F1C0FFC38FCB6
:1002C0007FF83FFF1FFE61F07FFF8F86C018FC0F95
:1002D000C003C01FE003E003E01FC000F007781F69
:1002E000E000F01E1C1FF80070380F0FF00078F0CF
:1002F000030F800000C0030E000008C003080000C8
:1003000038C003000000F8C00F0F0007F8F01C070A
:10031000000FF83878078003FC1EE003C001FC07DB
:10032000C003E007FC03C001F81F8C0361F0FFFF6E
:100330000F867FF83FFE1FFE3F1C0FF038FC000EBB
:1003400000007000000E00007000000C066030001D
:10035000000C07E03000000C0FF03000000C1C38DF
:100360003000001C381C3800001E700E7800000F92
:10037000E007F0000003C003C0000000000003C05D
:100380000000000083C000000000E7C00000000182
:10039000FFC600000001FFFE00000000FFFF00009C
:1003A0000000FFFE00000000FFFC00007003F8F8F2
:1003B0000000780FF87800007C07F87E00007C07CA
:1003C000F8FF0180FC03FFFF03E0FC0E7FFF03F05A
:1003D000FE1FFFE303FFFE7FFFE001FFFFFFFBE0E7
:1003E00001FFFFFEF1E001FFFFFE20E000FFFFFC48
:1003F000008000FFFFFC000001FFFFFC0000FFFF8A
:10040000FFFF0000FFFFFFFFFC00FFFF87FFFC0076
:10041000FFFE03FFFC003FFE01FFFC001FFE01FF8B
:10042000F00007FE01FFC00003FE01FF000003FE15
:1004300003FF000007FF07FE00000FFFFFFF0000A3
:100440001FFFFFFF80003FFFFFFFC0007FFFFFFF98
:10045000E0007FFFFFFFF0003C3FFFFFE000003FB8
:10046000FFC1E000003FFFC00000003FFFC00000F0
:10047000003F8FC00000003F0FC00000003E07C0DB
:100480000000003C03C00000001C03C00000020389
:10049000FFFFC0400303FFFFC0C00783FFFFC1E0B1
:1004A0000783FFFFC1E00783FFFFC1E00F03FFFFEA
:1004B000C0F00F03FFFFC0F00F03FFFFC0F00F03FA
:1004C000FFFFC0F01F03FFFFC0F81E03FFFFC0784F
:1004D0001E03FFFFC0783E03FFFFC07C3E03FFFF0B
:1004E000C07C3E03FFFFC07C7C03FFFFC03E7C035B
:1004F000FFFFC03E7C03FFFFC03E7C03FFFFC03E0A
:10050000FC03FFFFC03FFE000000007F7E000000F4
:10051000007E7F80000001FE7FE0000007FE3FF8C4
:1005200000001FFC1FFE00007FF80FFF0000FFF01F
:1005300007FFC003FFE003FFC003FFC001FBCFF3D1
:10054000DF8000FBCFF3DF00007FCFE3FE00003F42
:10055000C7E3FC00000007E000000003FFFFC0004D
:100560000003FFFFC0000003FFFFC0000003FFFF08
:10057000C0000003F00FC0000003F00FC000000334
:10058000FFFFC0000003FFFFC0000003FFFFC0002B
:100590000003FFFFC0000003FFFFC00000020000D7
:1005A0004000000207C04000000207E04000FFFEDC
:1005B00006607FFFFFFE07E07FFFFFFE07C07FFFB3
:1005C000C00206004003C00206004003C00206004D
:1005D0004003C00200004003C003FFFFC003C0008F
:1005E00000000003C00000000003C003FFFFC003C1
:1005F000C00200004003C00201804003C00201802D
:100600004003C00201804003FFFE01807FFFFFFE28
:1006100001807FFFC00201804003C00201804003CF
:10062000C00201804003C00200004003C003FFFF7E
:10063000C003C00000000003C00000000003C003AE
:10064000FFFFC003C00200004003C00200004003DF
:10065000C00207C04003C00207E04003FFFE06607F
:100660007FFFFFFE06607FFFFFFE06607FFF000248
:1006700007E0400000020780400000020000400048
:100680000003FFFFC00007FFFFFFFFE00FFFFFFFBA
:10069000FFF01F00000000F83C000000003C70006C
:1006A0000000000EF0000000000FE7FB180000073C
:1006B000E7FB18000007C0C1B0200003C0C0E0F88D
:1006C0000003C0C0E1F80003C0C0E1FF8003C0C068
:1006D000E1FFFF03C0C1B1F8FFC3C0C318F801E3D5
:1006E000C0C3182003C3C00000003F83C000000344
:1006F000FE03C000007FE003C00007FE0003C0004F
:10070000FFC00003C00FFC000003C07F8000000397
:10071000C1F8007F18C3C3C0007F98C3C3801E61A7
:100720008D83C1FC3F618703C07FFF7F0703C00744
:10073000FF7E0703C0003F670703C0003E630D83D1
:10074000E0000C6398C7E0000061D8C7F00000002B
:10075000000F70000000000E3C000000003C1F0075
:10076000000000F80FFFFFFFFFF007FFFFFFFFE0B3
:1007700000003FFF00000001FFFFE0000007FFFF57
:10078000F800001FF001FC00003F00003F00007C6B
:1007900000000F8001F0000007C0C3E0000003E08C
:1007A000F3C0000001E0FF80000000F0FF00000047
:1007B0000078FFE03FFF0038FFF83FFF003CFFFC00
:1007C0003003003CFFF036DB001C7FC036DB001836
:1007D0007F0036DB0000780076DB00006000C0039D
:1007E00000000000C00300000000C0030000000083
:1007F000C00300060000C003000E0000C003007E1E
:100800000800C00301FE3800C00307FF3C00C0031E
:100810001FFF1C00FFFF0FFF1E00FFFF03FF0E0066
:10082000000000FF0F00000001FF0780000003EF41
:1008300003C0000007C303E000000F8001F80000C0
:100840003F00007E0000FC00003F8007F800001F12
:10085000FFFFE0000007FFFF80000000FFFC00003A
:1008600007FFFFFFFFE00FFFFFFFFFF01F0000008B
:1008700000F83C000180003C70000180000EF00098
:100880000180000FE00001800007E0000180000708
:10089000C00001800003C00001800003C00C018083
:1008A0000003C01C01800003C03C01800003C0FCA9
:1008B00001802003C1FFFD803803C7FFFD803C039A
:1008C000CFFFFD803F03C7FFFDBFFF83C3FFFDBF19
:1008D000FFE3C0FFFDBFFFF3C07C1DBFFFF3C03CC3
:1008E0001DBFFFC3C00C1DBFFF83C0001DB83E036A
:1008F000C0001DB83C03C00001B83003C00001B8FF
:100900000003C00001800003C00001800003C0009C
:1009100001800003C00001800003E00001800007A7
:10092000E00001800007F0000180000F70000180EE
:10093000000E3C000180003C1F00000000F80FFF8B
:10094000FFFFFFF007FFFFFFFFE0000FFFFFFFFECD
:10095000001FFFFFFFFF003C000000070038000001
:1009600000030038000000037FF800000003FFF8D8
:1009700000000003F0381FFFFF83C0381FFFFF8314
:10098000C0381FFFFF83C03800000003C0380000DC
:100990000003C03800000003C03800000003C03866
:1009A00000000003C0381FFFFF83C0381FFFFF8314
:1009B000C0381FFFFF83C03800000003C0380000AC
:1009C0000003C03800000003C03800000003C03836
:1009D0001FFFFF83C0381FFFFF83C0381FFFFF8347
:1009E000C03800000003C03800000003C038000019
:1009F0000003C03800000003C03800000003C03E00
:100A000000000007C01FFFFFFFFFC00FFFFFFFFE3A
:100A1000C00000001800C00000001800E000000046
:100A20003800FFFFFFFFF8007FFFFFFFF000001F0F
:100A3000FFFFF000001FFFFFF800003FFFFFF8007E
:100A4000003800003C00007000001C000070000036
:100A50000E0000E000000E0001E00000070001C0F1
:100A60000000078003C0000003800380000003C073
:100A70000700000001C00F00000000E00E000000B1
:100A800000F01E00000000701CF9FE783F78398CE1
:100A900030CC31B839803186319C71C03186319C7F
:100AA000F0F03186318EE07831863F0FE01C3186E0
:100AB000300E700C3186301E798C30CC301C38F8FA
:100AC0003078303C3C00000000381C000000007012
:100AD0000E00000000700E00000000E007000000A3
:100AE00001E00780000001C00380000003C003C0D4
:100AF0000000038001C00000070000E000000F00BC
:100B000000F000000E00007000001E0000780000E1
:100B10001C00003800003800001FFFFFF800001F15
:100B2000FFFFF000000FFFFFF0000000003FFFFF9D
:100B3000F80000000000007FFFFFFC000000000044
:100B400000FFFFFFFF000000000001F000000F00A9
:100B50000000000003C000000780000000000781C3
:100B6000FFFF03C0000000000787FFFFC3C00000B5
:100B70000000070FFFFFE1C00000000007000000B9
:100B800001C0000000000700000001E000000000BC
:100B90000708064021E000000000070F1E70E1E09A
:100BA00000000000070C0C6061E000000000070876
:100BB000444221E000000000070CE44F21E0000067
:100BC00000000707FC7FC1E0000000000703F01FE2
:100BD00081E0000000000710010011E000000000AB
:100BE000071FFC3FF1E000000000071FFE7FF1C07F
:100BF00000000000070FF81FE1C000000000070719
:100C0000F00FE1C0000000000783F01F83C0000068
:100C1000000003C0000007800000000001F0000099
:100C20000F000000000001FFFFFFFF0000000000B8
:100C3000007FFFFFFC0000000000003FFFFFF80006
:100C4000000000000003FFFF800000000000000023
:100C50007FF80000000000000000FFFE0000000020
:100C600000000001FFFF0000000000000003FFFF84
:100C70008000000000000007FFFF8000000000006F
:100C8000000FFFFFC00000000000000FFFFFC000CA
:100C900000000000000FFFFFC00000000000000F78
:100CA000FFFFE00000000000000FFFFFE000000079
:100CB0000000000FFFFFE00000000000000FFFFF3A
:100CC000C00000000000000FFFFFC0000000000097
:100CD0000007FFFFC000000000000000000000004F
:100CE0000000000000000000000000000000000004
:100CF000000000000000860821820F80C3E0307FE2
:100D0000CE0C33830FE3F3F8FC7FCE1E33878FE7DF
:100D1000FBF9FE7EDC1E37078C661B198618F83738
:100D20003E0DCFE61B798618F8333E0CCDC61B79F5
:100D30008618DC73B71CEDC73B19CE18CE7FB39F66
:100D4000ECE3F3F8FC18C67FB19FEC61E3F0781890
:100D500000000000003E5B4F5B3E3E6B4F6B3E1C55
:100D60003E7C3E1C183C7E3C181C577D571C1C5E6C
:100D70007F5E1C00183C1800FFE7C3E7FF00182443
:100D80001800FFE7DBE7FF30483A060E26297929ED
:100D900026407F050507407F05253F5A3CE73C5A22
:100DA0007F3E1C1C08081C1C3E7F14227F22145FFF
:100DB0005F005F5F06097F017F006689956A60605A
:100DC00060606094A2FFA29408047E040810207E54
:100DD000201008082A1C08081C2A08081E101010D9
:100DE000100C1E0C1E0C30383E3830060E3E0E061F
:100DF000000000000000005F000000070007001472
:100E00007F147F14242A7F2A122313086462364930
:100E10005620500008070300001C22410000412218
:100E20001C002A1C7F1C2A08083E0808008070301D
:100E3000000808080808000060600020100804028C
:100E40003E5149453E00427F400072494949462192
:100E500041494D331814127F1027454545393C4A06
:100E6000494931412111090736494949364649491D
:100E7000291E000014000000403400000008142265
:100E800041141414141400412214080201590906D3
:100E90003E415D594E7C1211127C7F494949363ED4
:100EA000414141227F4141413E7F494949417F09BA
:100EB0000909013E414151737F0808087F00417FC5
:100EC00041002040413F017F081422417F404040C3
:100ED000407F021C027F7F0408107F3E4141413E5B
:100EE0007F090909063E4151215E7F0919294626DD
:100EF0004949493203017F01033F4040403F1F20E1
:100F000040201F3F4038403F6314081463030478B7
:100F100004036159494D43007F41414102040810D7
:100F200020004141417F0402010204404040404012
:100F3000000307080020545478407F284444383880
:100F400044444428384444287F38545454180008F2
:100F50007E090218A4A49C787F0804047800447DCC
:100F600040002040403D007F1028440000417F4069
:100F7000007C047804787C080404783844444438BD
:100F8000FC1824241818242418FC7C08040408489D
:100F90005454542404043F44243C4040207C1C20EE
:100FA00040201C3C4030403C44281028444C909049
:100FB000907C4464544C44000836410000007700A3
:100FC00000004136080002010204023C2623263CB0
:100FD0001EA1A161123A4040207A3854545559213B
:100FE0005555794122545478422155547840205423
:100FF0005579400C1E527212395555555939545471
:10100000545939555454580000457C410002457DDF
:10101000420001457C407D1211127DF0282528F008
:101020007C545545002054547C547C0A097F493235
:10103000494949323A4444443A324A4848303A41AC
:1010400041217A3A42402078009DA0A07D3D424255
:10105000423D3D4040403D3C24FF2424487E4943DE
:10106000662B2FFC2F2BFF0929F620C0887E090351
:1010700020545479410000447D413048484A323878
:101080004040227A007A0A0A727D0D19317D2629A4
:10109000292F28262929292630484D40203808089C
:1010A000080808080808382F10C8ACBA2F102834D0
:1010B000FA00007B000008142A142222142A1408C3
:1010C0005500550055AA55AA55AAFF55FF55FF00D2
:1010D0000000FF00101010FF00141414FF00101087
:1010E000FF00FF1010F010F0141414FC001414F79B
:1010F00000FF0000FF00FF1414F404FC1414171088
:101100001F10101F101F1414141F00101010F000D7
:101110000000001F101010101F10101010F0100011
:101120000000FF101010101010101010FF10000021
:1011300000FF140000FF00FF00001F10170000FC5C
:1011400004F414141710171414F404F40000FF002E
:10115000F714141414141414F700F71414141714B7
:1011600010101F101F141414F4141010F010F000BD
:10117000001F101F0000001F14000000FC140000DE
:10118000F010F01010FF10FF141414FF14101010C2
:101190001F00000000F010FFFFFFFFFFF0F0F0F075
:1011A000F0FFFFFF0000000000FFFF0F0F0F0F0F09
:1011B0003844443844FC4A4A4A347E020206060255
:1011C0007E027E0263554941633844443C04407EBC
:1011D000201E2006027E020299A5E7A5991C2A4935
:1011E0002A1C4C7201724C304A4D4D3030487848C0
:1011F00030BC625A463D3E494949007E0101017EAC
:101200002A2A2A2A2A44445F444440514A444040FE
:10121000444A51400000FF0103E080FF000008083D
:101220006B6B083612362436060F090F06000018BD
:10123000180000001010003040FF0101001F0101E4
:101240001E00191D1712003C3C3C3C000000000031
:101250000000000203000A0B00000000050409085A
:10126000000000000000000000000000000000007E
:101270000102040810204080010204081020408070
:101280000102040810204080010204081020408060
:10129000020202020202020204040404040404041E
:1012A000030303030303030301010101010101011E
:1012B0000000200023002600290000002200250055
:1012C00028002B0000002100240027002A0016150A
:1012D000DFAD99C730C82F1511241FBECFEFD0E462
:1012E000DEBFCDBF1EE0A0E0B1E0ECEFF7EA01E029
:1012F0000BBF02C007900D92AE35B107D9F729E1B7
:10130000AEE5BEE001C01D92A830B207E1F719E0DA
:10131000CBE6D9E004C02197FE010E94D5CEC736A6
:10132000D107C9F70E94FDCB0C94F1D30C940000B7
:10133000CF93DF93EC0169E278E086E896E10E94C2
:10134000A7C84AE050E0BE0186E896E1DF91CF9160
:101350000C9465C9DC01ED91FC910190F081E02DC8
:101360000994CF93DF939C01EB0180918F0E1216AD
:101370001306BCF4B9010E94BAC460E080918E0EDD
:101380000E94A6C58091910E1C161D06C4F4BE01D4
:101390000E94BAC460E08091900EDF91CF910C94CE
:1013A000A6C52115310539F0B90161507F4F0E9462
:1013B000BAC461E0E3CF61E00E94A6C5FACF2097EE
:1013C00039F0BE0161507F4F0E94BAC461E0E3CFA3
:1013D0006FE00E94A6C5FACF60E08091950E0E9452
:1013E000A6C58091D7018D7F31F0809184169091B0
:1013F0008516019729F461E08091950E0C94A6C59D
:10140000089561E08091950E0E94A6C58091D70154
:101410008D7F31F08091841690918516019729F483
:1014200060E08091950E0C94A6C5089561E08FEF61
:101430000C94A6C560E08FEF0C94A6C50F931F9384
:101440000E94BFC3AB01BC0180916A0E90916B0EEC
:10145000A0916C0EB0916D0E8A019B01081B190BB7
:101460002A0B3B0B8091060190910701092E000C7D
:10147000AA0BBB0B081719072A073B0708F47DC006
:1014800040936A0E50936B0E60936C0E70936D0ECA
:101490008091FE0E9091FF0EA091F40EB091F50E8A
:1014A000E091F60EF091F70E2091FC0E3091FD0EBA
:1014B000AC01421B530B2091F20E3091F30E429F70
:1014C000B001439F700D529F700D11248A9F9001AF
:1014D0008B9F300D9A9F300D1124AF01421B530B8F
:1014E000461B570B5093F90E4093F80E2E0F3F1FDB
:1014F000260F371F3093FB0E2093FA0E9093FD0EAC
:101500008093FC0E8091EE0E9091EF0E9195819557
:1015100091094817590724F49093F90E8093F80E17
:101520002817390724F49093FB0E8093FA0E8091CC
:10153000F00E9091F10E2091F80E3091F90E821775
:10154000930724F49093F90E8093F80E2091FA0EED
:101550003091FB0E8217930724F49093FB0E809337
:10156000FA0E6091FA0E7091FB0E8091F80E909138
:10157000F90E1F910F910C94B1091F910F910895CD
:10158000CF92DF92EF92FF92CF9380918D0E2091B8
:10159000C0143091C114C82ED12CF12CE12CC8EC10
:1015A000821713063CF18091C0149091C114C816A3
:1015B000D9060CF445C0C092810ED092820EE09202
:1015C000830EF092840EB60181E79EE00E9422C352
:1015D0008091BA149091BB149C01C29FC001C39F1B
:1015E000900D11240E9457C431E0C31AD108E108BC
:1015F000F108D9CF8091C0149091C1148C159D052C
:10160000FCF0C092810ED092820EE092830EF09296
:10161000840EB60181E79EE00E9422C38091BA1435
:101620009091BB149C01C29FC001C39F900D1124D7
:101630000E9457C43FEFC31AD30AE30AF30ADACF72
:101640008091C01480938D0ECF91FF90EF90DF902A
:10165000CF900895CF92DF92EF92FF92CF93809137
:101660008D0E2091C2143091C314C82ED12CF12CB0
:10167000E12CC8EC821713063CF18091C2149091C2
:10168000C314C816D9060CF445C0C092810ED0927E
:10169000820EE092830EF092840EB60181E79EE006
:1016A0000E9422C38091BA149091BB149C01C29FE6
:1016B000C001C39F900D11240E9457C431E0C31A8A
:1016C000D108E108F108D9CF8091C2149091C314D8
:1016D0008C159D05FCF0C092810ED092820EE09296
:1016E000830EF092840EB60181E79EE00E9422C331
:1016F0008091BA149091BB149C01C29FC001C39FFA
:10170000900D11240E9457C43FEFC31AD30AE30A75
:10171000F30ADACF8091C21480938D0ECF91FF909F
:10172000EF90DF90CF900895CF92DF92EF92FF92EB
:10173000CF9380918C0E2091BC143091BD14C82E93
:10174000D12CF12CE12CC8EC821713063CF18091CE
:10175000BC149091BD14C816D9060CF445C0C092B3
:101760007D0ED0927E0EE0927F0EF092800EB6013A
:101770008EE69EE00E9422C38091B8149091B91425
:101780009C01C29FC001C39F900D11240E9457C4A9
:1017900031E0C31AD108E108F108D9CF8091BC1417
:1017A0009091BD148C159D05FCF0C0927D0ED092D9
:1017B0007E0EE0927F0EF092800EB6018EE69EE0E5
:1017C0000E9422C38091B8149091B9149C01C29FC9
:1017D000C001C39F900D11240E9457C43FEFC31A4C
:1017E000D30AE30AF30ADACF8091BC1480938C0EFB
:1017F000CF91FF90EF90DF90CF900895CF92DF923E
:10180000EF92FF92CF9380918C0E2091BE14309175
:10181000BF14C82ED12CF12CE12CC8EC8217130672
:101820003CF18091BE149091BF14C816D9060CF4F7
:1018300045C0C0927D0ED0927E0EE0927F0EF09257
:10184000800EB6018EE69EE00E9422C38091B814FD
:101850009091B9149C01C29FC001C39F900D1124A7
:101860000E9457C431E0C31AD108E108F108D9CF6A
:101870008091BE149091BF148C159D05FCF0C09210
:101880007D0ED0927E0EE0927F0EF092800EB60119
:101890008EE69EE00E9422C38091B8149091B91404
:1018A0009C01C29FC001C39F900D11240E9457C488
:1018B0003FEFC31AD30AE30AF30ADACF8091BE14CA
:1018C00080938C0ECF91FF90EF90DF90CF90089592
:1018D000CF93DF93C82FD0E0682F617080919A0E6C
:1018E0000E94A6C5BE017595679561708091990E9D
:1018F0000E94A6C5D595C795D595C7956C2F6170E3
:101900008091980EDF91CF910C94A6C580E00E9443
:10191000680C8091970E0E949CC497FD0396959544
:101920008795959587959093090F8093080F8091DF
:10193000960E0E949CC497FD039695958795959564
:10194000879590931B0F80931A0F85E090E00E947B
:1019500057C481E00E94680C8091970E0E949CC43D
:1019600097FD0396959587959595879590930B0F81
:1019700080930A0F8091960E0E949CC497FD039657
:1019800095958795959587959093190F8093180F46
:1019900085E090E00E9457C48AE00E94680C809124
:1019A000970E0E949CC497FD0396959587959595F3
:1019B000879590930D0F80930C0F8091960E0E9447
:1019C0009CC497FD039695958795959587959093DB
:1019D000170F8093160F85E090E00E9457C483E0B4
:1019E0000E94680C8091970E0E949CC497FD0396FC
:1019F00095958795959587959093070F8093060FFA
:101A00008091960E0E949CC497FD039695958795AC
:101A10009595879590931D0F80931C0F85E090E01E
:101A20000E9457C484E00E94680C8091970E0E9427
:101A30009CC497FD0396959587959595879590936A
:101A40000F0F80930E0F8091960E0E949CC497FDFD
:101A5000039695958795959587959093050F809317
:101A6000040F85E090E00E9457C485E00E94680C56
:101A70008091970E0E949CC497FD0396959587953B
:101A8000959587959093150F8093140F8091960EDE
:101A90000E949CC497FD039695958795959587958B
:101AA00090931F0F80931E0F85E090E00E9457C413
:101AB00086E00E94680C8091970E0E949CC497FD5E
:101AC000039695958795959587959093110F80939B
:101AD000100F8091960E0E949CC497FD03969595D9
:101AE0008795959587959093030F8093020F85E0D6
:101AF00090E00E9457C487E00E94680C8091970E86
:101B00000E949CC497FD039695958795959587951A
:101B10009093130F8093120F8091960E0E949CC495
:101B200097FD039695958795959587959093010FC9
:101B30008093000F85E090E00C9457C40E94860CBF
:101B400031E020E04091000F5091010F8091241668
:101B500090912516841795070CF030E0832F922F73
:101B60004091020F5091030F2091261630912716B5
:101B7000241735070CF482604091040F5091050F33
:101B80002091281630912916241735070CF484600B
:101B90004091060F5091070F20912A1630912B1675
:101BA000241735070CF488604091080F5091090FF5
:101BB00020912C1630912D16241735070CF48061D6
:101BC00040910A0F50910B0F20912E1630912F1635
:101BD000241735070CF4806240910C0F50910D0FC3
:101BE0002091301630913116241735070CF480649B
:101BF00040910E0F50910F0F2091321630913316F5
:101C0000241735070CF480684091100F5091110F84
:101C10002091341630913516241735070CF4916055
:101C20004091120F5091130F2091361630913716B4
:101C3000241735070CF492604091140F5091150F42
:101C40002091381630913916241735070CF494601A
:101C50004091160F5091170F20913A1630913B1674
:101C6000241735070CF498604091180F5091190F04
:101C700020913C1630913D16241735070CF49061E5
:101C800040911A0F50911B0F20913E1630913F1634
:101C9000241735070CF4906208950E94860C31E0F9
:101CA00020E04091000F5091010F809124169091F7
:101CB0002516481759070CF030E0832F922F4091DA
:101CC000020F5091030F20912616309127164217CC
:101CD00053070CF482604091040F5091050F20913E
:101CE000281630912916421753070CF4846040914E
:101CF000060F5091070F20912A1630912B1642178C
:101D000053070CF488604091080F5091090F2091FF
:101D10002C1630912D16421753070CF48061409118
:101D20000A0F50910B0F20912E1630912F1642174B
:101D300053070CF4806240910C0F50910D0F2091CD
:101D4000301630913116421753070CF480644091DD
:101D50000E0F50910F0F209132163091331642170B
:101D600053070CF480684091100F5091110F20918F
:101D7000341630913516421753070CF49160409198
:101D8000120F5091130F20913616309137164217CB
:101D900053070CF492604091140F5091150F20914D
:101DA000381630913916421753070CF4946040915D
:101DB000160F5091170F20913A1630913B1642178B
:101DC00053070CF498604091180F5091190F20910F
:101DD0003C1630913D16421753070CF49061409128
:101DE0001A0F50911B0F20913E1630913F1642174B
:101DF00053070CF4906208950E94860C60911E0FA8
:101E000070911F0F660F771F660F771F6B50710958
:101E100080EC92E10E946CCECB019B0121503109F4
:101E20002233310510F082E390E008950E94860C81
:101E300081E090E020911C0F30911D0F2B3A31056D
:101E400014F490E080E0089588E10E949CC4BC01F5
:101E5000990F880B990B0E9429CD20E030E04CE5CA
:101E600052E40E94DECD20E030EC4FE754E40E94C3
:101E70007FCC20E030E0A9010E940ECC0895809133
:101E8000A00E0E94D4C521E0892B09F020E0822F0A
:101E90000895EF92FF920F931F93CF93DF93D82F64
:101EA000162FF42EC22F68E37FEF88E39FEF0E9486
:101EB000B109612F70E090E080E00E941EC48C2F79
:101EC00090E09093ED0E8093EC0E602F70E0709395
:101ED000EB0E6093EA0E9195819591090E94B109EC
:101EE0001092DB0E1092DA0E1092210F8091210FCA
:101EF0008F1580F40E943F0F81110CC08091210F3B
:101F00008F5F8093210F62E070E080E090E00E949C
:101F10001EC4ECCF1092DB0E1092DA0E1092210F3D
:101F2000D23008F04BC0E1104DC08C2F869590E068
:101F30009093ED0E8093EC0E602F669570E0709399
:101F4000EB0E6093EA0E9195819591090E94B1097B
:101F50000E949E0D9093C90E8093C80E8091C80E6A
:101F60009091C90E892B21F40E943F0F882381F3A1
:101F7000DD2341F1C6958C2F90E09093ED0E809378
:101F8000EC0E0695602F70E07093EB0E6093EA0EF6
:101F90009195819591090E94B1090E944D0E9093EF
:101FA000C90E8093C80E8091C80E9091C90E892BDE
:101FB00049F40E943F0F882381F304C0D33011F409
:101FC000EE20C1F284E690E09093ED0E8093EC0E4B
:101FD0009093EB0E8093EA0E6CE97FEF0E94B109BB
:101FE00061E070E080E090E00E941EC470E060E07C
:101FF00090E080E00E94B1091092FF0E1092FE0E58
:10200000DF91CF911F910F91FF90EF9008958091F4
:102010009F0E0E94D4C521E0892B09F020E0822F79
:10202000089580919E0E0E94D4C521E0892B09F06D
:1020300020E0822F089580919D0E0E94D4C521E05A
:10204000892B09F020E0822F089580919C0E0E9438
:10205000D4C521E0892B09F020E0822F0895EF926A
:10206000FF920F931F93CF93DF93D82F162FF42E49
:10207000C22F68E37FEF88E39FEF0E94B109612FD1
:1020800070E090E080E00E941EC48C2F90E090935E
:10209000ED0E8093EC0E602F70E07093EB0E60936A
:1020A000EA0E7195619571090E94B1091092210F94
:1020B0008091210F8F1500F50E943F0F81111CC0E8
:1020C0000E940710811118C00E941110811114C0C4
:1020D0000E941B10811110C00E94251081110CC09C
:1020E0008091210F8F5F8093210F62E070E080E08C
:1020F00090E00E941EC4DCCF1092210FD23008F075
:102100006BC0E1106DC08C2F869590E09093ED0E22
:102110008093EC0E602F669570E07093EB0E6093E9
:10212000EA0E7195619571090E94B1090E949E0D98
:102130009093C90E8093C80E8091C80E9091C90EDD
:10214000892BA1F40E943F0F811110C00E9407103B
:1021500081110CC00E941110811108C00E941B1037
:10216000811104C00E942510882301F3DD23C1F1F1
:10217000C6958C2F90E09093ED0E8093EC0E069513
:10218000602F70E07093EB0E6093EA0E719561958D
:1021900071090E94B1090E944D0E9093C90E80935F
:1021A000C80E8091C80E9091C90E892BC9F40E9467
:1021B0003F0F811115C00E940710811111C00E94AC
:1021C000111081110DC00E941B10811109C00E94C5
:1021D0002510882301F304C0D33011F4EE2041F21E
:1021E00084E690E09093ED0E8093EC0E9093EB0ECE
:1021F0008093EA0E64E670E08CE99FEF0E94B109DB
:1022000061E070E080E090E00E941EC470E060E059
:1022100090E080E00E94B1091092FF0E1092FE0E35
:10222000DF91CF911F910F91FF90EF9008958091D2
:102230009B0E0E94D4C521E0892B09F020E0822F5B
:1022400008958A30910534F06CEE75E086E896E1E9
:102250000C94A7C84AE050E0BC0186E896E10C94D3
:1022600065C98A30910514F40C9498098436910557
:1022700034F06BEE75E086E896E10C94A7C84AE06E
:1022800050E0BC0186E896E10C9465C9CF93DF93DA
:10229000EC016AE176E08A3091052CF084369105F4
:1022A00034F469E278E086E896E10E94A7C84AE043
:1022B00050E0BE0186E896E1DF91CF910C9465C9AC
:1022C0002F923F924F925F926F927F928F929F9246
:1022D000AF92BF92CF92DF92EF92FF920F931F9334
:1022E000CF93DF9300D000D01F92CDB7DEB70E940E
:1022F00017118111FCCF58EDA52EBB24BA94312CB7
:10230000212C512C412C712C612C912C812C198267
:102310001D821C8224E1A20EB11C1A141B0414F4A9
:10232000B12CA12C86E896E10E94C7BE61E070E066
:1023300086E896E10E942EBB61E070E086E896E1B7
:102340000E942EBB62E086E896E10E9428BB44E032
:1023500050E0B501615F7F4F86E896E10E9422BBA5
:10236000EC81FD81EE0FFF1FE85FFE4F6081718100
:1023700086E896E10E94A7C8CC24C394D12C43E000
:10238000E42EF12C0DE010E02CE130E046E250E0CC
:10239000C5010D969B838A83BC0186E896E10E9465
:1023A0005BB626E330E046E250E0B501675C7F4F64
:1023B00086E896E10E945BB661E086E896E10E94BD
:1023C00028BB4CE150E06A817B8186E896E10E945F
:1023D00022BB6EEE75E086E896E10E94A7C8B501C3
:1023E0006E5E7F4F8C819D81892BF1F449E250E034
:1023F00086E896E10E9422BBC3010E9446119981A2
:10240000911126C149E250E0B501645B7F4F86E837
:1024100096E10E9422BB6EEF75E086E896E10E948D
:10242000A7C8312C212C12C18C819D81019709F004
:10243000E7C049E250E086E896E10E9422BBC40171
:102440000E9446119981911103C149E250E0B50102
:10245000645B7F4F86E896E10E9422BB6EEF75E0D9
:1024600086E896E10E94A7C8512C412CB101C20117
:102470000E94B1090E941B10882379F08C819D81F4
:1024800001969D838C83039711F41D821C8260E565
:1024900070E080E090E00E941EC40E942510882316
:1024A00089F08C819D8101979D838C83019621F415
:1024B00082E090E09D838C8360E570E080E090E0B6
:1024C0000E941EC40E941110882399F08C819D8166
:1024D000892B79F49AE0690E711C2BEF6216710456
:1024E00014F0712C612C60E570E080E090E00E94B7
:1024F0001EC40E940710882391F08C819D81892B36
:1025000071F49AE0691A710877FE03C09AEF692E98
:10251000712C60E570E080E090E00E941EC40E9493
:102520001110882399F08C819D81019779F49AE0AC
:10253000890E911C2BEF8216910414F0912C812CA2
:1025400060E570E080E090E00E941EC40E940710E9
:10255000882391F08C819D81019771F49AE0891A0A
:10256000910897FE03C08AEF882E912C60E570E0F9
:1025700080E090E00E941EC40E941711882381F021
:102580000E9417118111FCCF89818F5F833008F081
:1025900080E0898360E570E080E090E00E941EC4E6
:1025A0000E943F0F882309F4AAC00E943F0F8111A7
:1025B000FCCF60E570E080E090E00E941EC470E017
:1025C00060E090E080E00E94B1090E94010A0F9053
:1025D0000F900F900F900F90DF91CF911F910F915F
:1025E000FF90EF90DF90CF90BF90AF909F908F9033
:1025F0007F906F905F904F903F902F900C941A0AAD
:10260000298122300CF0198249E250E086E896E1F7
:102610000E9422BB8FEF90E00E94461189818111B8
:102620001AC049E250E0B501645B7F4F86E896E14D
:102630000E9422BB6EEF75E086E896E10E94A7C873
:102640008C819D81029711F40E941A0A19820ECF83
:102650009981913051F58C819D8149E250E0B5011D
:10266000029789F46C5B7F4F86E896E10E9422BB5B
:1026700062E076E086E896E10E94A7C80E94160A0A
:1026800091E09983F3CE605C7F4F86E896E10E94EB
:1026900022BB69E076E086E896E10E94A7C88C81BB
:1026A0009D81892B51F12401EBCF2981223009F042
:1026B000DDCE49E250E0B501605C7F4F86E896E1EF
:1026C0000E9422BB61E176E086E896E10E94A7C8FD
:1026D0008C819D81892B39F08C819D81019741F0FE
:1026E0000E94160AC3CE2224332426183708BECEF1
:1026F0004424552448185908B9CE1301C1CF86E89F
:1027000096E10E9458C006CECF93DF93EC0169E1B9
:1027100076E08A3091055CF06AE176E084369105D6
:1027200034F0C83E83E0D80734F469E278E086E804
:1027300096E10E94A7C84AE050E0BE0186E896E113
:10274000DF91CF910C9465C92F923F924F925F9287
:102750006F927F928F929F92AF92BF92CF92DF92B1
:10276000EF92FF920F931F93CF93DF932C010E9460
:10277000860C1092E30E1092E20ECDE0D0E0AAE0BB
:102780003A2E88248394912C1AE0612E712C2AE031
:10279000420E511C09E0202E8091E20E9091E30E32
:1027A0008E3091050CF072C0FE01E81BF90BCF01D1
:1027B000880F991FFC01E05CF94E20813181FC01FA
:1027C000EC5DF94EE080F1802E153F051CF50F2CD5
:1027D000000C000B110B032E000C440B550B80500A
:1027E000914FFC0160817181072E000C880B990BC1
:1027F0001F921F921F923F92A12CB12C6501A394AE
:102800000E9435CB70935F0E60935E0E0F900F9019
:102810000F900F9080915E0E90915F0E1816190622
:1028200024F090925F0E80925E0E80915E0E9091E9
:102830005F0E0B9724F070925F0E60925E0E009117
:102840005E0E10915F0EA201401B510B8091E20EB3
:102850009091E30E289EB001299E700D11246E5FA9
:102860007F4FCC24C394D12CF12CE12C27E030E015
:1028700086E896E10E9428B78091E20E9091E30EDF
:1028800001969093E30E8093E20E86CFDF91CF9175
:102890001F910F91FF90EF90DF90CF90BF90AF907E
:1028A0009F908F907F906F905F904F903F902F9070
:1028B00008955F926F927F928F929F92AF92BF9294
:1028C000CF92DF92EF92FF920F931F93CF93DF93FC
:1028D0005C01EB018091CC0E9091CD0E9093E70EB0
:1028E0008093E60EACEABEE0FD012EE0E83CF20784
:1028F00019F011921192F9CF42E25FE030E020E04E
:10290000880F991FFC01EC58F24F608171816D9323
:102910007D93CB01022E02C0969587950A94E2F72B
:102920008170FA018193AF012F5F3F4F2E30310547
:1029300071F73093E30E2093E20E0E94860C809193
:10294000E60E9091E70E892B09F445C01092E30E34
:102950001092E20E26E0522E3DE0832E912C3E0195
:10296000F6E06F0E711C8091E20E9091E30E8E30B6
:1029700091050CF04BC0589EB001599E700D11246A
:102980006A0D7B1DF401E81BF90BEE5DF04F8081B1
:10299000CC24C394D12C8130B1F4EE24E394F12CF7
:1029A00007E010E025E030E0AE0186E896E10E9405
:1029B00028B78091E20E9091E30E01969093E30E7A
:1029C0008093E20ED0CFF12CE12C01E010E025E065
:1029D00030E0A301EACFAE01B50186E896E10E949E
:1029E00022BB6DE176E086E896E1DF91CF911F9101
:1029F0000F91FF90EF90DF90CF90BF90AF909F909E
:102A00008F907F906F905F900C94A7C8DF91CF91CB
:102A10001F910F91FF90EF90DF90CF90BF90AF90FC
:102A20009F908F907F906F905F9008956FEF86E8F2
:102A300096E10E94AEBE6CE276E08EE796E10E94DF
:102A4000E5CB66E376E088E796E10E94E5CB81E797
:102A50009EE00E9432C28EE69EE00C9432C288E76D
:102A600096E10E9476CB8EE796E10C9476CBC091EE
:102A7000C414D0E00E94EC0964E670E080E090E0CD
:102A80000E941EC40E94010A64E670E080E090E0AB
:102A90000E941EC40E94EC0964E670E080E090E0B1
:102AA0000E941EC40E94010A64E670E080E090E08B
:102AB0000E941EC40E94EC0964E670E080E090E091
:102AC0000E941EC40E94010A64E670E080E090E06B
:102AD0000E941EC486E896E10E94C7BE61E070E0D5
:102AE00086E896E10E942EBB62E086E896E10E94AD
:102AF00028BB4AE050E06DE170E086E896E10E9474
:102B000022BB62E476E086E896E10E94A7C841E233
:102B100050E067E170E086E896E10E9422BB66E53E
:102B20007CE086E896E10E94A7C886E896E10E94CC
:102B300058C04090C0145090C114C201052C000C24
:102B4000AA0BBB0B8093810E9093820EA093830EF1
:102B5000B093840E2090BC143090BD14C101330C8E
:102B6000AA0BBB0B80937D0E90937E0EA0937F0EDD
:102B7000B093800E87E698E10E94FDC518161906ED
:102B8000CCF758EC652E712C68EC862E912C312CEC
:102B900087E698E10E94FDC5181619062CF487E611
:102BA00098E10E9417C6382E83E538125FC070E0A6
:102BB00060E090E080E00E94B109832D8F7D853533
:102BC00009F0B6C081E0681A710877FE02C0712C66
:102BD000612CA090BE14B090BF140B2C000CCC083C
:102BE000DD088091BC149091BD14092E000CAA0B35
:102BF000BB0BBF93AF939F938F9318ECE12EF12CF7
:102C000000E010E020E030E0A901B301072C000C47
:102C1000880B990B0E9435CB262E0F900F900F90AA
:102C20000F9080E33812B9C02297C233D10514F453
:102C3000C2E3D0E0C201052C000CAA0BBB0B8093B1
:102C4000810E9093820EA093830EB093840E822DFA
:102C5000022C000C990BAA0BBB0B80937D0E90935A
:102C60007E0EA0937F0EB093800E92CF86E4381232
:102C700003C0BE01CE019FCF86E63816D1F382E4B1
:102C8000381206C0882799278C1B9D0BBC0193CF57
:102C900082E63816B9F382E5381205C06627772731
:102CA0006C1B7D0BE7CF82E73816C1F38CE438123A
:102CB00006C0BE01882799278C1B9D0B7CCF8CE614
:102CC0003816B9F384E438127FC08FEF681A780A97
:102CD00089EC6816710419F448EC642E712CA090EC
:102CE000BE14B090BF140B2C000CCC08DD088091F2
:102CF000BC149091BD14092E000CAA0BBB0BBF9302
:102D0000AF939F938F9318ECE12EF12C00E010E02D
:102D100020E030E0A901B301072C000C880B990BCF
:102D20000E9435CB262E0F900F900F900F9045CF1D
:102D3000803509F03EC08FEF881A980A89EC881612
:102D4000910419F498EC892E912CA090C214B090A3
:102D5000C3140B2C000CCC08DD088091C01490919A
:102D6000C114092E000CAA0BBB0BBF93AF939F930A
:102D70008F9318ECE12EF12C00E010E020E030E021
:102D8000A901B401092C000C880B990B0E9435CBCA
:102D90002B010F900F900F900F9089E338124ACFBC
:102DA0002196C11581E0D80709F044CFCFEFD0E0DC
:102DB00041CF8D3409F035CF81E0881A910897FE14
:102DC000C4CF912C812CC1CF84E6381609F47DCF75
:102DD000F4CEEF92FF920F931F93CF938B017A0162
:102DE000C22F61E070E0409714F470E060E060652D
:102DF00084EB96E10E9461ADB70184EB96E10E94FD
:102E0000AA09B80184EB96E10E94AA096C2F84EB11
:102E100096E10E94E9AC84EB96E10E94DCAD65E0AE
:102E200070E080E090E0CF911F910F91FF90EF90C4
:102E30000C941EC4EF92FF920F931F93CF93DF93D6
:102E40007C01EB018EE08E9D80018F9D100D112481
:102E5000FB01E15AFD4E2081AB01B801C7010E9480
:102E6000E91665E070E080E090E00E941EC4FE017B
:102E7000E956FE4EB8016F5F7F4F2081AE01C7015A
:102E80000E94E91665E070E080E090E00E941EC4B8
:102E9000FE01E550FE4EB8016D5F7F4F2081AE010F
:102EA000C7010E94E91665E070E080E090E00E94B2
:102EB0001EC4FE01ED5CFE4EB8016C5F7F4F2081A9
:102EC000AE01C7010E94E91665E070E080E090E085
:102ED0000E941EC4FE01ED5AFB4EB8016B5F7F4F8E
:102EE0002081AE01C7010E94E91665E070E080E034
:102EF00090E00E941EC4FE01E151FC4EB8016A5FE1
:102F00007F4F2081AE01C7010E94E91665E070E0A5
:102F100080E090E00E941EC4FE01E557FC4EB8011F
:102F2000695F7F4F2081AE01C7010E94E91665E00D
:102F300070E080E090E00E941EC4FE01E95DFC4E5E
:102F4000B801685F7F4F2081AE01C7010E94E9167A
:102F500065E070E080E090E00E941EC4FE01E15355
:102F6000FF4EB801675F7F4F2081AE01C7010E940D
:102F7000E91665E070E080E090E00E941EC4FE016A
:102F8000E559FF4EB801665F7F4F2081AE01C70152
:102F90000E94E91665E070E080E090E00E941EC4A7
:102FA000FE01E95FFF4EB801655F7F4F2081AE01F2
:102FB000C7010E94E91665E070E080E090E00E94A1
:102FC0001EC4FE01ED55F04FB801645F7F4F2081B4
:102FD000AE01C7010E94E91665E070E080E090E074
:102FE000DF91CF911F910F91FF90EF900C941EC431
:102FF0002F923F924F925F926F927F928F929F9209
:10300000AF92BF92CF92DF92EF92FF920F931F93F6
:10301000CF93DF93712C612CD0E0C0E0882E880F15
:10302000990886E896E10E94C7BE62E086E896E1CC
:103030000E9428BB61E070E086E896E10E942EBB0A
:1030400050E040E06AE070E086E896E10E9422BB32
:1030500069E476E086E896E10E94A7C861E086E828
:1030600096E10E9428BB49E150E070E060E086E80C
:1030700096E10E9422BB63E576E086E896E10E9435
:10308000A7C8EC2F0C2E000CFF0BEE0FFF1FE65D08
:10309000FE4F6081718186E896E10E94A7C81F9269
:1030A0001F921F9284E68F93A12CB12C650113E629
:1030B000E12EF12C00E010E020E030E0A9016D2FBE
:1030C0000D2E000C770B880B990B0E9435CB1B0142
:1030D00048E250E070E060E086E896E10E9422BBA2
:1030E0000F900F900F900F90CC2399F16CE576E044
:1030F00086E896E10E94A7C84AE050E0B10186E860
:1031000096E10E9465C968E676E086E896E10E944D
:10311000A7C8CC24C394D12C22E0E22EF12C05E0E8
:1031200010E026E630E042E350E070E060E086E840
:1031300096E10E945BB6EE24E394F12C03E010E0EC
:10314000910143E350E061E070E086E896E10E947F
:1031500028B78AEC97E10E9417C6182F61147104F2
:1031600009F068C06DEF76E08AEC97E10E94A7C88D
:10317000113249F465E078E08AEC97E10E94BAC820
:1031800066246394712C0E941711882359F00E94C1
:1031900017118111FCCF64E670E080E090E00E949E
:1031A0001EC4D3E60E943F0F882309F43DC10E944C
:1031B0003F0F8111FCCF64E670E080E090E00E9458
:1031C0001EC486E896E10E94C7BE62E086E896E1EA
:1031D0000E9428BB61E070E086E896E10E942EBB69
:1031E00044E150E063E270E086E896E10E9422BB91
:1031F0006AE676E086E896E10E94A7C886E896E14E
:103200000E9458C060E273E080E090E0DF91CF91CF
:103210001F910F91FF90EF90DF90CF90BF90AF90F4
:103220009F908F907F906F905F904F903F902F90E6
:103230000C941EC48A3209F0A6CF41E070E060E031
:103240008AEC97E10E94D4CA0D2F0D2E000C110BB1
:10325000F801E15AFD4E60838AEC97E10E9417C69F
:103260008C9709F0DFC041E070E060E08AEC97E104
:103270000E94D4CAF801E956FE4E60838AEC97E1B9
:103280000E9417C68C9709F0CDC041E070E060E065
:103290008AEC97E10E94D4CAF801ED53FD4E608399
:1032A0008AEC97E10E9417C68C9709F0BBC041E0F9
:1032B00070E060E08AEC97E10E94D4CAF801E55022
:1032C000FE4E60838AEC97E10E9417C68C9709F046
:1032D000A9C041E070E060E08AEC97E10E94D4CAA6
:1032E000F801ED5CFE4E60838AEC97E10E9417C600
:1032F0008C9709F097C041E070E060E08AEC97E1BC
:103300000E94D4CAF801ED5AFB4E60838AEC97E123
:103310000E9417C68C9709F085C041E070E060E01C
:103320008AEC97E10E94D4CAF801E151FC4E608317
:103330008AEC97E10E9417C68C9709F073C041E0B0
:1033400070E060E08AEC97E10E94D4CAF801E5578A
:10335000FC4E60838AEC97E10E9417C68C9709F0B7
:1033600061C041E070E060E08AEC97E10E94D4CA5D
:10337000F801E95DFC4E60838AEC97E10E9417C674
:103380008C9709F04FC041E070E060E08AEC97E173
:103390000E94D4CAF801E153FF4E60838AEC97E1A2
:1033A0000E9417C68C97F1F541E070E060E08AEC6E
:1033B00097E10E94D4CAF801E559FF4E60838AEC78
:1033C00097E10E9417C68C9769F541E070E060E0D4
:1033D0008AEC97E10E94D4CAF801E95FFF4E60834E
:1033E0008AEC97E10E9417C68C97E1F441E070E007
:1033F00060E08AEC97E10E94D4CAF801ED55F04FE5
:1034000060838AEC97E10E9417C6839759F4B8014C
:10341000C4010E941A1765E078E08AEC97E10E94E7
:10342000BAC8DF5FC2E0AFCED33609F4C4CE86E8B7
:1034300096E10E9458C0F5CD2F923F924F925F9235
:103440006F927F928F929F92AF92BF92CF92DF92B4
:10345000EF92FF920F931F93CF93DF93CDB7DEB719
:10346000AA970FB6F894DEBF0FBECDBF8B83462E52
:10347000B42E282E312C2EE0829F40011124109270
:103480005F1220E050E040E0B401C1010E94E91663
:103490008091370F80939711C40101969A8789878D
:1034A000F0E0E0E0E956FE4E208150E040E0BC0153
:1034B000C1010E94E91680913A0F8093C312D40192
:1034C0001296BC87AB87F0E0E0E0ED53FD4E208123
:1034D00050E040E0BD01C1010E94E91686E0809302
:1034E000FB1194012D5F3F4F3E872D8726E050E072
:1034F00040E06D857E85C1010E94E9162091360F5E
:1035000020933311C4010496988B8F8750E040E0DC
:10351000BC01C1010E94E91620913E0F2093531473
:10352000D4011596BA8BA98B50E040E0BD01C101D2
:103530000E94E91620913D0F2093EF13C4010696D7
:103540009C8B8B8B50E040E0BC01C1010E94E916CE
:1035500020913C0F20938B13D4011796BE8BAD8B1B
:1035600050E040E0BD01C1010E94E91620913B0FEF
:1035700020932713C4010896988F8F8B50E040E06A
:10358000BC01C1010E94E9161092CF10D401199616
:10359000BA83A98320E050E040E0BD01C1010E9450
:1035A000E91680E580936B109401265F3F4F3A8FB8
:1035B000298F20E550E040E0698D7A8DC1010E949D
:1035C000E9163AE530930710C4010B969E838D836C
:1035D0002AE550E040E0BC01C1010E94E9169AE5ED
:1035E0009093A30FD4011C96B887AF832AE550E0CF
:1035F00040E0BD01C1010E94E91610923F0F20E09A
:1036000050E040E069817A81C1010E94E916809111
:10361000D5019091D60102970297A8F4BAE5B0932C
:1036200007102AE550E040E06D817E81C1010E94D3
:10363000E9162AE52093A30F50E040E06F817885DA
:10364000C1010E94E916842D90E09AA789A7512C08
:10365000712C612C4DA25EA26FA278A6AB2DB0E0BA
:10366000B8A3AF8F8B2D90E0B0E0A0E089A39AA320
:10367000ABA3BCA3AF8DB8A129A53AA5A217B307E8
:103680000CF40AC2232B59F489A59AA501969AA78E
:1036900089A79FEF491A590A690A790AEBCF209145
:1036A000390FE9A5FAA5E15AFD4E208349A55AA58F
:1036B000B401C1010E94E9162091370FE9A5FAA5CE
:1036C000E956FE4E208349A55AA569857A85C10130
:1036D0000E94E91620913A0FE9A5FAA5ED53FD4E97
:1036E000208349A55AA56B857C85C1010E94E916F6
:1036F0002091380FE9A5FAA5E550FE4E208349A593
:103700005AA56D857E85C1010E94E9162091360F6C
:10371000E9A5FAA5ED5CFE4E208349A55AA56F8563
:103720007889C1010E94E91620913E0FE9A5FAA50A
:10373000ED5AFB4E208349A55AA569897A89C101B2
:103740000E94E91620913D0FE9A5FAA5E151FC4E32
:10375000208349A55AA56B897C89C1010E94E9167D
:1037600020913C0FE9A5FAA5E557FC4E208349A519
:103770005AA56D897E89C1010E94E91620913B0FEF
:10378000E9A5FAA5E95DFC4E208349A55AA56F89F4
:10379000788DC1010E94E9162091350FE9A5FAA59F
:1037A000E153FF4E208349A55AA569817A81C10161
:1037B0000E94E9162091340FE9A5FAA5E559FF4EBC
:1037C000208349A55AA5698D7A8DC1010E94E91609
:1037D0002091330FE9A5FAA5E95FFF4E208349A5A3
:1037E0005AA56D817E81C1010E94E9162091320F98
:1037F000E9A5FAA5ED55F04F208349A55AA56F819B
:103800007885C1010E94E9162091310FE9A5FAA53A
:10381000E15CF04F208349A55AA569817A81C101F5
:103820000E94E91686E896E10E94C7BE61E070E05A
:1038300086E896E10E942EBB50E040E068E070E030
:1038400086E896E10E9422BB60E776E086E896E192
:103850000E94A7C8C1010E9431111F921F921F929E
:10386000A0E5AF93F2E0AF2EB12CC12CD12CE9A092
:10387000FAA00BA11CA12DA13EA14FA158A5C301E7
:10388000B2010E9435CB6B8F7C8F8D8F9E8F49E16B
:1038900050E06FE070E086E896E10E9422BB60E8AD
:1038A00076E086E896E10E94A7C84AE050E06B8D7A
:1038B0007C8D86E896E10E9465C968E676E086E838
:1038C00096E10E94A7C8CC24C394D12CB2E0EB2E81
:1038D000F12C07E010E026E630E043E250E06FE034
:1038E00070E086E896E10E945BB6EE24E394F12C4A
:1038F00005E010E02B8D3C8D44E250E060E170E08B
:1039000086E896E10E9428B786E896E10E9458C0B2
:103910000E943F0F0F900F900F900F90882309F493
:10392000B3CE0E943F0F8111FCCF64E670E080E0CF
:1039300090E00E941EC486E896E10E94C7BE61E046
:1039400086E896E10E9428BBD12CC12C53E0E52EDD
:10395000F12C03E210E026E730E044E150E065E0BE
:1039600070E086E896E10E9428B761E070E086E8A2
:1039700096E10E942EBB4FE050E064E170E086E8E3
:1039800096E10E9422BB6CE876E086E896E10E9410
:10399000A7C849E150E064E170E086E896E10E9442
:1039A00022BB6BE976E086E896E10E94A7C8CC24AA
:1039B000C394D12C72E0E72EF12C0DE010E02EE143
:1039C00030E045E250E061E370E086E896E10E9475
:1039D0005BB6EE24E394F12C0BE010E02CE130E038
:1039E00046E250E062E370E086E896E10E9428B784
:1039F00070E060E086E896E10E942EBB48E250E06D
:103A000069E370E086E896E10E9422BB69EA76E00D
:103A100086E896E10E94A7C886E896E10E9458C011
:103A20000E941711882339F181E08093A70E68EC7A
:103A300070E080E090E00E941EC48091A70E81306B
:103A400009F022CEAA960FB6F894DEBF0FBECDBF06
:103A5000DF91CF911F910F91FF90EF90DF90CF906A
:103A6000BF90AF909F908F907F906F905F904F909E
:103A70003F902F9008950E943F0F882389F20E9463
:103A80003F0F8111FCCF68EC70E080E090E00E9475
:103A90001EC41092A70ED1CF2B818BE0289F9001DE
:103AA00011243A832983412C512C320118861F821C
:103AB0003C832B83D4011D96BE83AD838091A70EDA
:103AC000813009F4BFCFE981FA812F813885E20F77
:103AD000F31FE153FB4E10824B815C81420F531F59
:103AE00020E06D817E81C1010E94E91686E896E1A1
:103AF0000E94C7BE61E070E086E896E10E942EBB9E
:103B000050E040E068E070E086E896E10E9422BB69
:103B100060E776E086E896E10E94A7C8C1010E94AE
:103B200031111F921F921F9234E63F9380E5A82E19
:103B3000B12CC12CD12C1AE0E12EF12C00E010E0C8
:103B400020E030E0A901C301B2010E9435CB4B0156
:103B500049E150E06FE070E086E896E10E9422BB08
:103B600060E876E086E896E10E94A7C84AE050E067
:103B7000B40186E896E10E9465C968E676E086E8C9
:103B800096E10E94A7C8CC24C394D12C32E0E32E46
:103B9000F12C07E010E026E630E043E250E06FE071
:103BA00070E086E896E10E945BB6EE24E394F12C87
:103BB00005E010E0940144E250E060E170E086E846
:103BC00096E10E9428B786E896E10E9458C08F814E
:103BD0009885019698878F839FEF491A590A690A39
:103BE000790A0F900F900F900F90AF81B8851B97B7
:103BF00009F064CF27CFCF92DF92EF92FF920F931D
:103C00001F93CF93DF93C82ED12C3EE0839F70018A
:103C10001124062F10E0E801C15ADD4E8881823060
:103C200009F095C187E0888327E0A801B701C601A4
:103C30000E94E91684E190E00E9457C48881833095
:103C400009F08CC188E0888328E0A801B701C6018B
:103C50000E94E91684E190E00E9457C48881843074
:103C600009F083C189E0888329E0A801B701C60172
:103C70000E94E91684E190E00E9457C48881853053
:103C800009F07AC18AE088832AE0A801B701C60159
:103C90000E94E91684E190E00E9457C48881863032
:103CA00009F071C18BE088832BE0A801B701C60140
:103CB0000E94E91684E190E00E9457C488818C300C
:103CC00009F068C189E1888329E1A801B701C6012B
:103CD0000E94E91684E190E00E9457C488818D30EB
:103CE00009F05FC188E1888328E1A801B701C60116
:103CF0000E94E91684E190E00E9457C488818E30CA
:103D000009F056C187E1888327E1A801B701C60100
:103D10000E94E91684E190E00E9457C488818F30A8
:103D200009F04DC186E1888326E1A801B701C601EB
:103D30000E94E91684E190E00E9457C48881803196
:103D400009F044C185E1888325E1A801B701C601D6
:103D50000E94E91684E190E00E9457C48881813175
:103D600009F03BC184E1888324E1A801B701C601C1
:103D70000E94E91684E190E00E9457C48881823154
:103D800009F032C183E1888323E1A801B701C601AC
:103D90000E94E91684E190E00E9457C488818A312C
:103DA00009F029C180E2888320E2A801B701C60199
:103DB0000E94E91684E190E00E9457C488818B310B
:103DC00009F020C181E2888321E2A801B701C60180
:103DD0000E94E91684E190E00E9457C488818C31EA
:103DE00009F017C182E2888322E2A801B701C60167
:103DF0000E94E91684E190E00E9457C488818D31C9
:103E000009F00EC183E2888323E2A801B701C6014D
:103E10000E94E91684E190E00E9457C488818E31A7
:103E200009F005C184E2888324E2A801B701C60134
:103E30000E94E91684E190E00E9457C488818F3186
:103E400009F0FCC085E2888325E2A801B701C6011C
:103E50000E94E91684E190E00E9457C4E801C55031
:103E6000DE4E8881823009F0F0C083E0888323E051
:103E7000A801B7016D5F7F4FC6010E94E91684E17A
:103E800090E00E9457C48881843009F0E5C085E045
:103E9000888325E0A801B7016D5F7F4FC6010E94AE
:103EA000E91684E190E00E9457C4888186508230F0
:103EB000F0F4F801ED55F04F2081A801B701655FDE
:103EC0007F4FC6010E94E91684E190E00E9457C42A
:103ED000F801E95FFF4E2081A801B701645F7F4FC1
:103EE000C6010E94E91684E190E00E9457C48091C7
:103EF000D00E9091D10E8130910509F0B4C082E0CE
:103F000090E09093D10E8093D00E8091D20E90913C
:103F1000D30E08962091D60E3AE0839F200D1124EF
:103F2000F801ED5CFE4E2083B7016C5F7F4FA80166
:103F3000C6010E94E91684E190E0DF91CF911F91C4
:103F40000F91FF90EF90DF90CF900C9457C4873083
:103F500009F074CE82E0888322E067CE883009F0D1
:103F60007DCE83E0888323E070CE893009F086CE51
:103F700084E0888324E079CE8A3009F08FCE85E012
:103F8000888325E082CE8B3009F098CE86E0888346
:103F900026E08BCE893109F0A1CE8CE088832CE01D
:103FA00094CE883109F0AACE8DE088832DE09DCE95
:103FB000873109F0B3CE8EE088832EE0A6CE86311D
:103FC00009F0BCCE8FE088832FE0AFCE853109F0B9
:103FD000C5CE80E1888320E1B8CE843109F0CECE11
:103FE00081E1888321E1C1CE833109F0D7CE82E11E
:103FF000888322E1CACE803209F0E0CE8AE188834C
:104000002AE1D3CE813209F0E9CE8BE188832BE11E
:10401000DCCE823209F0F2CE8CE188832CE1E5CE51
:10402000833209F0FBCE8DE188832DE1EECE843220
:1040300009F004CF8EE188832EE1F7CE853209F0B6
:104040000DCF8FE188832FE100CF833009F01BCFA4
:1040500082E0888322E00CCF853009F026CF84E00F
:10406000888324E017CF029761F481E090E0909379
:10407000D10E8093D00E8091D20E9091D30E0496E3
:1040800049CFDF91CF911F910F91FF90EF90DF907B
:10409000CF900895AF92BF92CF92DF92FF920F938D
:1040A0001F93CF93DF93F42EC82ED12C3EE0839F35
:1040B00080011124A62EB12CE501C15ADD4E888164
:1040C000823009F0ACC187E0888350E027E0B80176
:1040D000C6010E94E91684E190E00E9457C48881DD
:1040E000833009F0A4C188E088834F2D50E028E098
:1040F000B801C6010E94E91684E190E00E9457C40D
:104100008881843009F09CC189E088834F2D50E07C
:1041100029E0B801C6010E94E91684E190E00E94FE
:1041200057C48881853009F094C18AE088834F2D77
:1041300050E02AE0B801C6010E94E91684E190E04F
:104140000E9457C48881863009F08CC18BE0888337
:104150004F2D50E02BE0B801C6010E94E91684E122
:1041600090E00E9457C488818C3009F084C189E1B5
:1041700088834F2D50E029E1B801C6010E94E9165D
:1041800084E190E00E9457C488818D3009F07CC1A1
:1041900088E188834F2D50E028E1B801C6010E94D4
:1041A000E91684E190E00E9457C488818E3009F0BE
:1041B00074C187E188834F2D50E027E1B801C60123
:1041C0000E94E91684E190E00E9457C488818F30F4
:1041D00009F06CC186E188834F2D50E026E1B801DB
:1041E000C6010E94E91684E190E00E9457C48881CC
:1041F000803109F064C185E188834F2D50E025E1CD
:10420000B801C6010E94E91684E190E00E9457C4FB
:104210008881813109F05CC184E188834F2D50E0B1
:1042200024E1B801C6010E94E91684E190E00E94F1
:1042300057C48881823109F054C183E188834F2DAE
:1042400050E023E1B801C6010E94E91684E190E044
:104250000E9457C488818A3109F04CC180E288836A
:104260004F2D50E020E2B801C6010E94E91684E11A
:1042700090E00E9457C488818B3109F044C181E2EB
:1042800088834F2D50E021E2B801C6010E94E91653
:1042900084E190E00E9457C488818C3109F03CC1D0
:1042A00082E288834F2D50E022E2B801C6010E94CD
:1042B000E91684E190E00E9457C488818D3109F0AD
:1042C00034C183E288834F2D50E023E2B801C60158
:1042D0000E94E91684E190E00E9457C488818E31E3
:1042E00009F02CC184E288834F2D50E024E2B8010C
:1042F000C6010E94E91684E190E00E9457C48881BB
:104300008F3109F024C185E288834F2D50E025E2EA
:10431000B801C6010E94E91684E190E00E9457C4EA
:10432000E501C550DE4E8881823009F019C183E075
:1043300088834F2D50E023E0B8016D5F7F4FC601A9
:104340000E94E91684E190E00E9457C4888184307D
:1043500009F00FC185E088834F2D50E025E0B801BA
:104360006D5F7F4FC6010E94E91684E190E00E94D4
:1043700057C488818650823000F5CF2DD0E0F501FA
:10438000ED55F04F2081AE01B801655F7F4FC6014A
:104390000E94E91684E190E00E9457C4F501E95FAC
:1043A000FF4E2081AE01B801645F7F4FC6010E94BD
:1043B000E91684E190E00E9457C48091D00E90915C
:1043C000D10E8130910509F0DDC082E090E090933C
:1043D000D10E8093D00E8091D20E9091D30E08967C
:1043E0002091D60E3AE0839F200D1124F501ED5C5B
:1043F000FE4E20834F2D50E0B8016C5F7F4FC60109
:104400000E94E91684E190E0DF91CF911F910F9116
:10441000FF90DF90CF90BF90AF900C9457C487303F
:1044200009F05DCE82E0888350E022E050CE8830F3
:1044300009F066CE83E088834F2D50E023E058CE0C
:10444000893009F06ECE84E088834F2D50E024E05F
:1044500060CE8A3009F076CE85E088834F2D50E01B
:1044600025E068CE8B3009F07ECE86E088834F2D24
:1044700050E026E070CE893109F086CE8CE088834A
:104480004F2D50E02CE078CE883109F08ECE8DE0B3
:1044900088834F2D50E02DE080CE873109F096CEF5
:1044A0008EE088834F2D50E02EE088CE863109F0D3
:1044B0009ECE8FE088834F2D50E02FE090CE853147
:1044C00009F0A6CE80E188834F2D50E020E198CE00
:1044D000843109F0AECE81E188834F2D50E021E197
:1044E000A0CE833109F0B6CE82E188834F2D50E013
:1044F00022E1A8CE803209F0BECE8AE188834F2D1A
:1045000050E02AE1B0CE813209F0C6CE8BE188833B
:104510004F2D50E02BE1B8CE823209F0CECE8CE1A7
:1045200088834F2D50E02CE1C0CE833209F0D6CEE7
:104530008DE188834F2D50E02DE1C8CE843209F003
:10454000DECE8EE188834F2D50E02EE1D0CE853235
:1045500009F0E6CE8FE188834F2D50E02FE1D8CED1
:10456000833009F0F3CE82E088834F2D50E022E0C3
:10457000E3CE853009F0FDCE84E088834F2D50E0F6
:1045800024E0EDCE029761F481E090E09093D10EAB
:104590008093D00E8091D20E9091D30E049620CFAE
:1045A000DF91CF911F910F91FF90DF90CF90BF903F
:1045B000AF900895EF92FF920F931F93CF938C01CA
:1045C0007B01C42F60E570E084EB96E10E9461AD51
:1045D000B70184EB96E10E94AA09B80184EB96E149
:1045E0000E94AA096C2F84EB96E10E94E9AC84EB4F
:1045F00096E10E94DCAD65E070E080E090E0CF9154
:104600001F910F91FF90EF900C941EC46F927F92B8
:104610008F929F92AF92BF92CF92DF92EF92FF92D2
:104620000F931F93CF93DF931092C6141092C5146B
:1046300022E32093D40181E08093CC148093B714BB
:104640001092200F93E69093C7148093CB1440915F
:10465000D5015091D6014115510509F050C098E798
:104660009093C41435E03093CC0138E03093CD0101
:104670003BE03093CE013DE03093CF0130E1309309
:10468000D00133E13093D10134E13093D20139E1EB
:104690003093D30138E23093C4012093C5013CE349
:1046A0003093C60136E43093C7013BE43093C80130
:1046B00030E53093C90135E53093CA013AE53093CE
:1046C000CB0110923E0F36E930933D0F10923C0F14
:1046D00090933B0F80933A0F1092390F8093380FCD
:1046E00084E08093370F8093360F1092350F20931C
:1046F000340F88EC8093330F8093320F53C04130D6
:10470000510509F087C19AE59093C41435E03093C0
:10471000CC0138E03093CD013BE03093CE013DE059
:104720003093CF0130E13093D00133E13093D101A8
:1047300034E13093D20139E13093D30138E2309340
:10474000C4012093C5013CE33093C60136E43093A5
:10475000C7013BE43093C80130E53093C90135E52A
:104760003093CA019093CB0110923E0F92E8909340
:104770003D0F10923C0F34E630933B0F80933A0F7D
:104780001092390F8093380F83E08093370F809316
:10479000360F1092350F2093340F88EC8093330F2F
:1047A0009093320F1092310F40E065E070E080EEA0
:1047B0009FEF0E94DA2240E064E070E080EE9FEF1D
:1047C0000E94DA224091C41461E070E080EE9FEF15
:1047D0000E94DA224091D40162E070E080EE9FEF07
:1047E0000E94DA224091C51470E060E080EE9FEFF5
:1047F0000E94DA224091C71469E070E080EE9FEFDA
:104800000E94DA224091CB146AE070E080EE9FEFC4
:104810000E94DA2240E065E070E080EE9FEF0E94A7
:10482000DA2240E06BE070E080EE9FEF0E94DA2237
:1048300040E570E060E087EE9FEF0E94DA2240E5FD
:1048400061E070E087EE9FEF0E94DA2240E562E0CF
:1048500070E087EE9FEF0E94DA2240E563E070E0AF
:1048600087EE9FEF0E94DA2244E665E070E087EE73
:104870009FEF0E94DA2244E666E070E087EE9FEF49
:104880000E94DA224091B71464E070E087EE9FEF57
:104890000E94DA2246E968E070E087EE9FEF0E940E
:1048A000DA224091390F65E070E088EE9FEF0E94B8
:1048B000DA2240913E0F70E060E088EE9FEF0E94A8
:1048C000DA2240913D0F61E070E088EE9FEF0E9498
:1048D000DA2240913C0F62E070E088EE9FEF0E9488
:1048E000DA2240913B0F63E070E088EE9FEF0E9478
:1048F000DA224091380F66E070E088EE9FEF0E9468
:10490000DA224091370F67E070E088EE9FEF0E9457
:10491000DA224091360F68E070E088EE9FEF0E9447
:10492000DA224091350F69E070E088EE9FEF0E9437
:10493000DA224091340F6AE070E088EE9FEF0E9427
:10494000DA224091330F6BE070E088EE9FEF0E9417
:10495000DA224091320F6CE070E088EE9FEF0E9407
:10496000DA224091310F6DE070E088EE9FEF0E94F7
:10497000DA228CEBE82E81E0F82E04EB11E09CECBF
:10498000892E91E0992E24ECA22E21E0B22ED0E0C7
:10499000C0E066246A9432E8732EF70161927F01C9
:1049A000F80171928F01F40141914F01BE0184EE33
:1049B0009FEF0E94DA22F50141915F016E01F9E05B
:1049C000CF0ED11CB60184EE9FEF0E94DA22F701D0
:1049D00031974081BE0185EE9FEF0E94DA22F801F7
:1049E00031974081B60185EE9FEF0E94DA22219631
:1049F000C830D10591F6DF91CF911F910F91FF90B3
:104A0000EF90DF90CF90BF90AF909F908F907F906E
:104A10006F900895425051094230510508F0C4CEBC
:104A20002093C41433E03093CC0194E09093CD01F3
:104A300095E09093CE0197E09093CF0198E090930A
:104A4000D00199E09093D1019AE09093D2019BE03C
:104A50009093D30198E29093C4019093C5019093F1
:104A6000C6019093C7019093C8019093C901909398
:104A7000CA019093CB0110923E0F9AE590933D0F9F
:104A800010923C0F96E490933B0F80933A0F109254
:104A9000390F8093380F3093370F3093360F1092C1
:104AA000350F2093340F82E88093330F8CE324CEAC
:104AB0004F925F926F927F928F929F92AF92BF922E
:104AC000CF92DF92EF92FF920F931F93CF93DF93DA
:104AD0001092A70E61E086E896E10E9428BB0E9432
:104AE00017118111FCCF66E970E080E090E00E9430
:104AF0001EC4C8EDDFEFB12CA12C64961C161D0658
:104B000014F4D0E0C0E086E896E10E94C7BECC2451
:104B1000C394D12CF12CE12C0CE010E020E830E023
:104B200050E040E0BE0186E896E10E9428B770E0C0
:104B300060E086E896E10E942EBB2E0188E0480ED8
:104B4000511C42E050E0B20186E896E10E9422BB8F
:104B50006DEA76E086E896E10E94A7C861E070E021
:104B600086E896E10E942EBB45E150E0B20186E85E
:104B700096E10E9422BB6FEB76E086E896E10E9408
:104B8000A7C874E0E72EF12C0FE010E020E330E03E
:104B90004BE250E0BE01655F7F4F86E896E10E94E0
:104BA0005BB620E330E04BE250E0BE016A5B7F4F32
:104BB00086E896E10E945BB6350181E068266301D4
:104BC0000DE010E02EE230E04CE250E0BE01645F08
:104BD0007F4F86E896E10E9428B7B3016F5F7F4F51
:104BE00086E896E10E942EBB4FE250E0BE016E5E69
:104BF0007F4F86E896E10E9422BB62ED76E086E870
:104C000096E10E94A7C865012EE230E04CE250E038
:104C1000BE01695B7F4F86E896E10E9428B7B50127
:104C20006F5F7F4F86E896E10E942EBB4FE250E017
:104C3000BE016D5A7F4F86E896E10E9422BB63E277
:104C400079E086E896E10E94A7C861E086E896E1EF
:104C5000A0FE4AC00E9428BB61E070E086E896E1B1
:104C60000E942EBB4FE150E0B20186E896E10E941F
:104C700022BB69ED76E086E896E10E94A7C80E9413
:104C80001110882339F0530168EC70E080E090E067
:104C90000E941EC40E940710882341F081E0A826CC
:104CA00068EC70E080E090E00E941EC40E943F0F1C
:104CB000882371F10E943F0F8111FCCF64E670E000
:104CC00080E090E0DF91CF911F910F91FF90EF90E6
:104CD000DF90CF90BF90AF909F908F907F906F901C
:104CE0005F904F900C941EC40E9428BB61E070E05E
:104CF00086E896E10E942EBB4FE150E0BE016B5F5B
:104D00007F4F86E896E10E9422BB6BEE76E0B3CF40
:104D10000E941711882319F0A114B104A1F00E9478
:104D20001711882309F48BC0C0E043E660E08C2FA4
:104D30000E941C1A8091A70E813009F47BC0CF5FBE
:104D4000CF3199F777C052E0452E512C612C712C50
:104D5000C4E686E896E10E94C7BE61E070E086E89E
:104D600096E10E942EBB1F921F921F92CF9382E06A
:104D7000A82EB12CC12CD12C12E3E12EF12C00E095
:104D800010E020E030E0A901C301B2010E9435CB60
:104D90004B0149E150E06FE070E086E896E10E9447
:104DA00022BB60E876E086E896E10E94A7C84AE068
:104DB00050E0B40186E896E10E9465C968E676E0B5
:104DC00086E896E10E94A7C8CC24C394D12C32E097
:104DD000E32EF12C07E010E026E630E043E250E05D
:104DE0006FE070E086E896E10E945BB6EE24E39403
:104DF000F12C05E010E0940144E250E060E170E045
:104E000086E896E10E9428B786E896E10E9458C09D
:104E10008FEF481A580A680A780A0F900F900F907F
:104E20000F9083E3481651046104710409F091CF97
:104E30000E94062366E470E080E090E043CF86E8BD
:104E400096E10E9458C059CE2F923F924F925F92A6
:104E50006F927F928F929F92AF92BF92CF92DF928A
:104E6000EF92FF920F931F93CF93DF9300D000D068
:104E7000CDB7DEB78CE596E19C838B8340E4242E8E
:104E800046E1342EE4E2F6E1FA83E983412C512C29
:104E90003201EB81FC8120813181F101808191819E
:104EA000A901481B590B6091D401649FC001659F03
:104EB000900D11246CE97FEF0E9480CEAB01420F70
:104EC000531FE981FA8141935193FA83E983B20137
:104ED00081EE9FEF0E94DA22F1014081B20182EE61
:104EE0009FEF0E94DA22EB81FC814081B20183EEC8
:104EF0009FEF0E94DA2286E896E10E94C7BE61E039
:104F000070E086E896E10E942EBB1F921F921F92CE
:104F1000F4E6FF93A12CB12C65011DE0E12EF12CEC
:104F200000E010E020E030E0A901C301B2010E94DE
:104F300035CB4B0149E150E06FE070E086E896E147
:104F40000E9422BB60E876E086E896E10E94A7C84E
:104F50004AE050E0B40186E896E10E9465C968E63F
:104F600076E086E896E10E94A7C8CC24C394D12CB1
:104F700022E0E22EF12C07E010E026E630E043E2EA
:104F800050E06FE070E086E896E10E945BB6EE24A8
:104F9000E394F12C05E010E0940144E250E060E17C
:104FA00070E086E896E10E9428B786E896E10E94C4
:104FB00058C06AE070E080E090E00E941EC48B81DF
:104FC0009C8102969C838B8392E0290E311CEFEF2B
:104FD0004E1A5E0A6E0A7E0A0F900F900F900F9085
:104FE000FEE04F1651046104710409F052CF0F9096
:104FF0000F900F900F90DF91CF911F910F91FF9025
:10500000EF90DF90CF90BF90AF909F908F907F9068
:105010006F905F904F903F902F900895CF92DF92C6
:10502000EF92FF920F931F93CF93DF930E9417117C
:105030008111FCCFECE5F6E1A0E4B6E128E736E12A
:105040008FEF90E02E173F0709F064C38EE090E0E9
:105050009093E50E8093E40ECCE9DFEF86E896E1CD
:105060000E94C7BE90E080E00E94A4138091000FD0
:105070009091010F20915C1630915D162817390729
:1050800024F490935D1680935C1620914016309125
:1050900041168217930724F490934116809340168B
:1050A0008091020F9091030F20915E1630915F1650
:1050B0002817390724F490935F1680935E16209189
:1050C0004216309143168217930724F490934316A7
:1050D000809342168091040F9091050F20916016E5
:1050E000309161162817390724F490936116809344
:1050F000601620914416309145168217930724F4C8
:1051000090934516809344168091060F9091070F57
:1051100020916216309163162817390724F4909372
:1051200063168093621620914616309147168217B7
:10513000930724F490934716809346168091080FA6
:105140009091090F20916416309165162817390740
:1051500024F490936516809364162091481630913C
:1051600049168217930724F49093491680934816A2
:1051700080910A0F90910B0F20916616309167165F
:105180002817390724F490936716809366162091A8
:105190004A1630914B168217930724F490934B16BE
:1051A00080934A1680910C0F90910D0F20916816F4
:1051B000309169162817390724F490936916809363
:1051C000681620914C1630914D168217930724F4DF
:1051D00090934D1680934C1680910E0F90910F0F67
:1051E00020916A1630916B162817390724F4909392
:1051F0006B1680936A1620914E1630914F168217C7
:10520000930724F490934F1680934E168091100FBD
:105210009091110F20916C1630916D162817390757
:1052200024F490936D1680936C1620915016309153
:1052300051168217930724F49093511680935016B9
:105240008091120F9091130F20916E1630916F166E
:105250002817390724F490936F1680936E162091C7
:105260005216309153168217930724F490935316D5
:10527000809352168091140F9091150F2091701603
:10528000309171162817390724F490937116809382
:10529000701620915416309155168217930724F4F6
:1052A00090935516809354168091160F9091170F76
:1052B00020917216309173162817390724F49093B1
:1052C00073168093721620915616309157168217D6
:1052D000930724F490935716809356168091180FD5
:1052E0009091190F2091741630917516281739076F
:1052F00024F490937516809374162091581630916B
:1053000059168217930724F49093591680935816D0
:1053100080911A0F90911B0F20917616309177167D
:105320002817390724F490937716809376162091E6
:105330005A1630915B168217930724F490935B16EC
:1053400080935A16E0915C16F0915D162091D4017D
:1053500030E08091401690914116AF01481B590BE7
:10536000429FC001439F900D529F900D1124BE019A
:105370000E9480CE6E0F7F1F7093251660932416B7
:10538000E0915E16F0915F1680914216909143165F
:10539000AF01481B590B429FC001439F900D529F84
:1053A000900D1124BE010E9480CE6E0F7F1F70935E
:1053B000271660932616E0916016F0916116809191
:1053C000441690914516AF01481B590B429FC001EE
:1053D000439F900D529F900D1124BE010E9480CEDC
:1053E0006E0F7F1F7093291660932816E091621646
:1053F000F09163168091461690914716AF01481BB5
:10540000590B429FC001439F900D529F900D112454
:10541000BE010E9480CE6E0F7F1F70932B1660938B
:105420002A16E0916416F0916516809148169091C5
:105430004916AF01481B590B429FC001439F900D75
:10544000529F900D1124BE010E9480CE6E0F7F1FCF
:1054500070932D1660932C16E0916616F0916716E6
:1054600080914A1690914B16AF01481B590B429FF1
:10547000C001439F900D529F900D1124BE010E94C8
:1054800080CE6E0F7F1F70932F1660932E16E091C3
:105490006816F091691680914C1690914D16AF01E7
:1054A000481B590B429FC001439F900D529F900D86
:1054B0001124BE010E9480CE6E0F7F1F70933116A3
:1054C00060933016E0916A16F0916B1680914E163B
:1054D00090914F16AF01481B590B429FC001439F4B
:1054E000900D529F900D1124BE010E9480CE6E0F30
:1054F0007F1F7093331660933216E0916C16F09113
:105500006D168091501690915116AF01481B590BA2
:10551000429FC001439F900D529F900D1124BE01E8
:105520000E9480CE6E0F7F1F7093351660933416E5
:10553000E0916E16F0916F1680915216909153166D
:10554000AF01481B590B429FC001439F900D529FD2
:10555000900D1124BE010E9480CE6E0F7F1F7093AC
:10556000371660933616E0917016F091711680919F
:10557000541690915516AF01481B590B429FC0011C
:10558000439F900D529F900D1124BE010E9480CE2A
:105590006E0F7F1F7093391660933816E091721664
:1055A000F09173168091561690915716AF01481BD3
:1055B000590B429FC001439F900D529F900D1124A3
:1055C000BE010E9480CE6E0F7F1F70933B166093CA
:1055D0003A16E0917416F0917516809158169091D4
:1055E0005916AF01481B590B429FC001439F900DB4
:1055F000529F900D1124BE010E9480CE6E0F7F1F1E
:1056000070933D1660933C16E0917616F0917716F4
:1056100080915A1690915B16AF01481B590B429F1F
:10562000C001439F900D529F900D1124BE010E9416
:1056300080CE6E0F7F1F70933F1660933E1661E021
:1056400070E086E896E10E942EBB44E150E06AE0FB
:1056500070E086E896E10E9422BB6FEF76E086E874
:1056600096E10E94A7C843E250E06AE070E086E855
:1056700096E10E9422BB62E177E086E896E10E9413
:10568000A7C8CC24C394D12C92E0E92EF12C0DE0D4
:1056900010E02EE130E040E350E069E570E086E89C
:1056A00096E10E945BB6EE24E394F12C0BE010E04F
:1056B0002CE130E041E350E06AE570E086E896E1F5
:1056C0000E9428B770E060E086E896E10E942EBB59
:1056D00043E350E062E670E086E896E10E9422BB78
:1056E00064E277E086E896E10E94A7C80E9417115D
:1056F0008823A9F00E94242764E670E080E090E00F
:10570000DF91CF911F910F91FF90EF90DF90CF909D
:105710000C941EC4119211928D939D9393CC0E9470
:105720003F0F8111E9CF86E896E10E9458C096CCE0
:105730002F923F924F925F926F927F928F929F92A1
:10574000AF92BF92CF92DF92EF92FF920F931F938F
:10575000CF93DF9310928B0E0E9417118111FCCF13
:10576000912C812CC1E0D0E0B12CA12C1CE9212E80
:1057700033243A9486E896E10E94C7BE90E080E028
:105780000E94A41329E02A9DB0012B9D700D1124C5
:105790006E5F7F4FCC24C394D12CF12CE12C02E01E
:1057A00010E027E030E04CE050E086E896E10E940F
:1057B00028B7EE24E394F12C0EE010E02EE330E065
:1057C00040E150E070E060E086E896E10E945BB660
:1057D00061E0C130D10509F060E0662E712C6301F3
:1057E000F12CE12C0CE010E02CE330E041E150E042
:1057F00061E070E086E896E10E9428B7B3016F5F30
:105800007F4F86E896E10E942EBB43E150E065E0C1
:1058100070E086E896E10E9422BB67E277E086E8C6
:1058200096E10E94A7C866246394C230D10509F0AE
:10583000612CCC24C394D12CEE24E394F12C0EE003
:1058400010E02EE330E040E150E062E470E086E8F2
:1058500096E10E945BB6712C6301F12CE12C0CE007
:1058600010E02CE330E041E150E063E470E086E8D2
:1058700096E10E9428B7B3016F5F7F4F86E896E1FB
:105880000E942EBB43E150E067E470E086E896E1B9
:105890000E9422BB61E377E086E896E10E94A7C8F8
:1058A0008091D40190E00E94311168E676E086E8AC
:1058B00096E10E94A7C861E070E086E896E10E9448
:1058C0002EBBCC24C394D12CEE24E394F12C0EE017
:1058D00010E02EE330E041E250E070E060E086E866
:1058E00096E10E945BB62EE330E042E350E070E0C8
:1058F00060E086E896E10E945BB644E250E065E035
:1059000070E086E896E10E9422BB68E377E086E8D3
:1059100096E10E94A7C85DE0452E512C4A185B080D
:10592000440C551CF201E050F14F60817181660F0B
:10593000771F660F771F4AE050E086E896E10E94E5
:1059400065C945E350E065E070E086E896E10E94B5
:1059500022BB6EE377E086E896E10E94A7C8F201D9
:10596000EC5DF94E60817181660F771F660F771FBE
:105970004AE050E086E896E10E9465C92EE330E0F7
:1059800041E250E062E470E086E896E10E945BB696
:105990002EE330E042E350E062E470E086E896E116
:1059A0000E945BB661E0C330D10509F060E0662E6D
:1059B000712C6301F12CE12C0CE010E02CE330E0C1
:1059C00042E250E063E470E086E896E10E9428B786
:1059D000B3016F5F7F4F86E896E10E942EBB44E2E1
:1059E00050E067E470E086E896E10E9422BB64E440
:1059F00077E086E896E10E94A7C8F201E45AF94EE2
:105A000060817181660F771F660F771F4AE050E053
:105A100086E896E10E9465C961E0C430D10509F0CD
:105A200060E0662E712C6301F12CE12C0CE010E09B
:105A30002CE330E043E350E063E470E086E896E175
:105A40000E9428B7B3016F5F7F4F86E896E10E94FE
:105A50002EBB45E350E067E470E086E896E10E94E3
:105A600022BB6AE477E086E896E10E94A7C8F201CB
:105A7000E05CF94E60817181660F771F660F771FBA
:105A80004AE050E086E896E10E9465C90E94251030
:105A9000882391F0C130D10579F48FEFA81AB80AA4
:105AA0009EE0A916B10411F4B12CA12C64E670E0BB
:105AB00080E090E00E941EC40E941B10882381F0A9
:105AC000C130D10569F4A1E0AA1AB10818F41DE0AB
:105AD000A12EB12C64E670E080E090E00E941EC42C
